:020000040800F2
:100000004C0F0024410300080D1600080D160008CF
:100010000D1600080D1600080D1600080D16000834
:100020000D1600080D1600080D1600080D16000824
:100030000D1600080D1600080D1600080D16000814
:100040000D1600080D1600080D1600080D16000804
:100290000D1600080D16000880B485B000AFEFF30E
:1002A00014837B607B68FB60FB6843F00403FB60A6
:1002B000FB68BB60BB6883F3148800BF0C4B1B68F2
:1002C000FB60FB6823F04043FB60094AFB68136056
:1002D000084B1B68FB60FB6843F47003FB60054A36
:1002E000FB68136000BF1437BD465DF8047B7047A0
:1002F00034EF00E088ED00E080B483B000AFBFF3DE
:100300004F8FBFF36F8F0C4B1B687B607B6823F0B4
:1003100001037B60084A7B68136005237B60074A02
:100320007B681360BFF34F8FBFF36F8F00BF0C3735
:10033000BD465DF8047B704790EF00E094EF00E06D
:1003400080B582B000AF174B3B6004E03B681A1DDC
:100350003A6000221A603B68134A9342F6D3134B6B
:100360007B60134B3B6007E07A68131D7B603B6842
:10037000191D396012681A603B680E4A9342F3D324
:1003800000F07CFAFFF788FF00F09CFAFFF7B4FF5B
:1003900001F076FD00F081FF00F0D8FF00F0AAFE2A
:1003A00001F036FE700000244C0B00248870010818
:1003B000000000247000002480B483B000AF1A4B0A
:1003C0001B687B607B6843F001037B60164A7B6897
:1003D0001360164B01221A60154B00221A60124B53
:1003E0001B687B607A68134B13407B607B6843F02B
:1003F00010037B600C4A7B6813600F4B0F4A1A6036
:10040000094B1B687B607B6823F480237B60064A72
:100410007B6813600A4B00221A6000BF0C37BD4690
:100420005DF8047B704700BF00440258088100510A
:100430001044025867EFFEEA2C4402580000FF0106
:100440006044025880B483B000AF064B1B687B60E9
:10045000044A7B68136000BF0C37BD465DF8047B1F
:10046000704700BFD844025880B483B000AF064B39
:100470001B687B60044A7B68136000BF0C37BD4675
:100480005DF8047B704700BFDC44025880B483B041
:1004900000AF064B1B687B60044A7B68136000BF9B
:1004A0000C37BD465DF8047B704700BFD44402584A
:1004B00080B483B000AF084B1B687B607B6843F05F
:1004C000FF037B60044A7B68136000BF0C37BD46A6
:1004D0005DF8047B704700BFE044025880B483B0ED
:1004E00000AF094B1B687B60074A7B681360074BB2
:1004F0001B687B60054A7B68136000BF0C37BD46F4
:100500005DF8047B704700BFE8440258EC44025891
:1005100080B483B000AF064B1B687B60044A7B68E5
:10052000136000BF0C37BD465DF8047B704700BF09
:10053000F044025880B483B000AF064B1B687B6068
:10054000044A7B68136000BF0C37BD465DF8047B2E
:10055000704700BFE444025880B483B000AF084B3A
:100560001B687B607B6843F002037B60044A7B6806
:10057000136000BF0C37BD465DF8047B704700BFB9
:10058000F444025880B500AFFFF75CFFFFF76CFF43
:10059000FFF77CFFFFF78CFFFFF7A0FFFFF7B8FF27
:1005A000FFF7C8FFFFF7D8FF00BF80BD80B483B05E
:1005B00000AF0F4B1B687B607B6843F480237B603C
:1005C0007B6843F480337B60094A7B681360094B86
:1005D0003B6008E0064B1B6803F40033002B0BD193
:1005E0003B68013B3B603B68002BF3DC05E000BF50
:1005F000004402581CC5410000BF3B68002B40F37B
:100600000F818A4B1B687B607A68894B13407B6043
:100610007B6843F008037B60844A7B681360854BEA
:100620001B687B607B6823F4E0637B607B6843F03E
:1006300050037B607F4A7B6813607E4B1B687B6046
:100640007B6823F4E0637B607B6843F4A0637B609A
:10065000784A7B681360754B1B687B607B6823F06E
:1006600070037B607B6843F050037B606F4A7B685C
:100670001360714B1B687B607B6823F070037B60A9
:100680007B6843F050037B606B4A7B68136042F2E7
:1006900022037B60694A7B681360694B7B60694A0F
:1006A0007B68136044F6C7637B60674A7B681360AE
:1006B00000237B60654A7B681360654B7B60654AFD
:1006C0007B681360644B1B687B607B6843F08073BE
:1006D0007B607B6843F080637B605F4A7B6813606C
:1006E00000BF5D4B1B6803F00073002BF9D000BF07
:1006F000594B1B6803F00063002BF9D0574B1B6864
:100700007B607B6843F006037B60544A7B68136020
:10071000534B1B687B607B6823F440437B607B68A2
:1007200043F440437B604E4A7B68136000BF4C4BF0
:100730001B6803F40053002BF9D000BF494B1B6822
:1007400003F40053002BF9D024237B60464A7B68D6
:100750001360464B1B687B607B6823F007037B605C
:100760007B6843F003037B60404A7B68136000BFF3
:100770003E4B1B6803F03803182BF9D13C4B1B6828
:100780007B607B6823F440537B607B6843F40053B9
:100790007B60374A7B681360364B1B687B607B68E5
:1007A00023F440737B607B6843F400737B60314AC1
:1007B0007B681360304B1B687B607B6823F4E043ED
:1007C0007B602D4A7B6813602B4B1B687B607B68CA
:1007D00023F4E0237B60284A7B681360254B1B6869
:1007E0007B607B6823F0E0437B60224A7B68136078
:1007F0001F4B1B687B607B6823F440137B607B6826
:1008000043F440137B601A4A7B681360194B1B68E2
:100810007B607B6823F440337B60164A7B681360FF
:1008200000BF0C37BD465DF8047B70471844025882
:10083000F0F0FFFF1C44025820440258284402589C
:10084000C702030730440258384402584044025853
:1008500088000F002C440258004402580C480258EB
:100860001848025804480258002000521044025808
:1008700054440258584402585044025880B500AFBE
:10088000FFF79AFDFFF792FEFFF77CFE00BF80BDE9
:1008900080B483B000AF0346FB7100BF074B1B68F9
:1008A00003F08003002BF9D0054AFB79136000BFE9
:1008B0000C37BD465DF8047B704700BF1C48004004
:1008C0002848004080B582B000AF4FF4802200215C
:1008D0001C4800F0A9FC1C4800F0DDFE1B4800F09D
:1008E000DAFE1B4B1B687B607A6848F28F0313406B
:1008F0007B60174A7B681360164B1B687B607A68C5
:10090000154B13407B60134A7B681360134B1B68C5
:100910007B607A68124B13407B60104A7B681360DF
:10092000104B4FF4D9721A600A4B1B687B607B68CE
:1009300043F00D037B60074A7B68136000BF0837F4
:10094000BD4680BDE8440258387C0900397C090066
:1009500004480040004800400300003008480040C0
:100960000000F1FF0C48004080B483B000AF786015
:1009700039607B685A6D3B6813441B6818460C3716
:10098000BD465DF8047B704780B485B000AFF86069
:10099000B9607A60FB685A6DBB6813441A467B687D
:1009A000136000BF1437BD465DF8047B704780B507
:1009B00084B000AF78600B467B807B687A889A872A
:1009C00000217868FFF7D0FFF860FB6823F4D87344
:1009D000FB607B8803F4D873FA681343FB60FA6802
:1009E00000217868FFF7D0FF08217868FFF7BCFF87
:1009F000F860FB6823F00103FB607B8803F00103D0
:100A0000FA681343FB60FA6808217868FFF7BCFFB7
:100A100000BF1037BD4680BD80B584B000AF7860A0
:100A20000B467B80EFF3108372B67B817B89FB8161
:100A30007B8819467868FFF7BAFFFB89BB81BB89C1
:100A400013F0010F00D162B600BF00BF1037BD46E2
:100A500080BD80B586B000AF78603960EFF3108359
:100A600072B67B817B89FB823B68002B17D000210B
:100A70007868FFF779FF386108217868FFF774FF1D
:100A8000F8603B699BB203F4D8739AB2FB689BB2DF
:100A900003F001039BB213439AB23B681A80002112
:100AA0007868FFF784FFFB8A3B813B8913F0010FD5
:100AB00000D162B600BF00BF1837BD4680BD80B50B
:100AC0008AB000AF78607B689B6ABB61EFF31083EC
:100AD00072B67B817B89FB820021B869FFF744FFF6
:100AE00038623B6A03F001033B613B6A23F0010378
:100AF0003B623A6A0021B869FFF746FFBB691B6D8C
:100B00005A00BB699B6C5B081A44BB699B6CB2FBC7
:100B1000F3F3FB60FB68642B08D9FB6801335B08C7
:100B2000FB613B6A23F400433B620DE0FA684FF639
:100B3000F0731340FA68520802F007021343FB6196
:100B40003B6A43F400433B623A6A0021B869FFF70D
:100B50001BFFFA690C21B869FFF716FF3A6A3B4B95
:100B600013403B62BB6993F84230012B04D13B6ACE
:100B700043F4C0633B6208E0BB6993F84230022B48
:100B800003D13B6A43F480633B62BB6993F8433013
:100B9000092B09D0BB6993F84330082B09D1BB69F5
:100BA00093F84230002B04D03B6A43F480533B62FD
:100BB0000DE0BB6993F84330072B08D1BB6993F86C
:100BC0004230002B03D13B6A43F080533B623A6AC8
:100BD0000021B869FFF7D8FE0421B869FFF7C4FE09
:100BE00078627B6A23F440537B62BB6993F844309C
:100BF000002B03D07B6A43F400537B627A6A0421A2
:100C0000B869FFF7C1FE0821B869FFF7ADFE786249
:100C10007B6A23F440737B627A6A0821B869FFF724
:100C2000B3FE3A6A3B6913431A460021B869FFF7DD
:100C3000ABFEFB8A3B813B8913F0010F00D162B60A
:100C400000BF00BF2837BD4680BD00BFFFE9FFEFF2
:100C500080B586B000AF78600B46FB707B689B6AFE
:100C60007B617B695B6D0E4A934214D14FF4802304
:100C70003B610C4BFB6000BFFB78002B05D03A6951
:100C80000021F86800F0D0FA06E000223969F8681F
:100C900000F0CAFA00E000BF1837BD4680BD00BFB3
:100CA00000480040E844025880B584B000AF786046
:100CB0007B689B6ABB6000220021B868FFF764FE76
:100CC00001217868FFF7C4FFBB689B6D184600F0F0
:100CD000E2FCBB68DB6D184600F0DDFC0421B8685F
:100CE000FFF742FEF860FB6823F47D53FB60BB68AE
:100CF00093F84430002B03D0FB6843F40053FB60AF
:100D0000FA680421B868FFF73FFE0021B868FFF7D2
:100D10002BFEF860FA681F4B1340FB60FA68002155
:100D2000B868FFF731FE0821B868FFF71DFEF860CC
:100D3000FA68194B1340FB60BB6893F841305B06BF
:100D4000FA681343FB60FA680821B868FFF71CFED5
:100D50007868FFF7B4FE0021B868FFF705FEF86079
:100D6000FB6843F00D03FB60FB6843F00053FB603E
:100D7000FA680021B868FFF707FEBB6800229A876F
:100D8000BB68012283F84020002318461037BD4677
:100D900080BD00BF03BEFF33FEF8FFFF80B584B007
:100DA00000AF78607B689B6AFB60FB68002283F879
:100DB00040200021F868FFF74CFE00217868FFF71B
:100DC00047FF0021F868FFF7CFFDB860BB6823F04C
:100DD0000D03BB60BA680021F868FFF7D5FDFB681A
:100DE0009B6D184600F0BCFDFB68DB6D184600F0FB
:100DF000B7FD00BF1037BD4680BD80B584B000AFE1
:100E000078607B689B6AFB60FB6893F84C30FA68FB
:100E10000949184601F0B0FAB860BB68002B05D14B
:100E2000FB6893F84C30184600F051FFBB68184639
:100E30001037BD4680BD00BF6F0E000880B584B07E
:100E400000AF78607B689B6AFB60FB6893F84C306E
:100E5000184600F015FFFB6893F84C300022002183
:100E6000184601F089FA00BF1037BD4680BD80B535
:100E700086B000AFF860B9607A607B687B611C2146
:100E80007869FFF771FD03469AB27B69DA877B695F
:100E9000DB8F03F02003002B0AD07B699B8F03F0CC
:100EA0002003002B04D07B69184604F088FE0AE07A
:100EB0007B69DB8F03F00E03002B04D00E22202170
:100EC0007869FFF761FD7B69DB8F03F08003002BFE
:100ED00009D07B699B8F03F08003002B03D07B69D3
:100EE000184604F01BFE002318461837BD4680BD87
:100EF00080B487B000AFF860B9607A6000237B618E
:100F00006FF018037B6100BF7B6918461C37BD4634
:100F10005DF8047B704780B584B000AF78603960BD
:100F20007B689B6AFB602421F868FFF71DFDB860B1
:100F3000FB68DB8F1B041A46BB681A433B681A60C8
:100F4000FB680022DA87BB68DBB218461037BD4663
:100F500080BD80B586B000AF78600B46FB707B68C3
:100F60009B6A3B61EFF3108372B6BB81BB89FB8147
:100F70003B699B8FFB82FB78002B04D0FB8A43F0FC
:100F80002003FB8205E0FB8A23F4907323F0010326
:100F9000FB82FB8A19463869FFF73EFDFB897B819E
:100FA0007B8913F0010F00D162B600BF00BF183774
:100FB000BD4680BD80B584B000AF78607B689B6A19
:100FC000FB601C21F868FFF7CFFC034603F0200309
:100FD000002B14BF01230023DBB218461037BD4697
:100FE00080BD80B584B000AF786039607B689B6A53
:100FF000FB603B681A462821F868FFF7C5FC00BF74
:101000001037BD4680BD80B586B000AF78600B4616
:10101000FB707B689B6A7B61EFF3108372B6FB8188
:10102000FB897B82FB78002B0DD07B699B8F43F083
:1010300080033B823B8A19467869FFF7EDFC7868AC
:1010400004F06CFD08E07B699B8F23F080039BB26A
:1010500019467869FFF7E0FC7B8ABB81BB8913F0F6
:10106000010F00D162B600BF00BF1837BD4680BD7A
:1010700080B584B000AF78607B689B6AFB601C2100
:10108000F868FFF771FC034603F08003002B14BFE0
:1010900001230023DBB218461037BD4680BD80B463
:1010A00085B000AF78607B68013BFB60FB68002B7C
:1010B00008DBFB68072B05DC0D4AFB6852F8233080
:1010C000002B01D100230DE0094AFB6852F82330C0
:1010D00093F84030002B01D1002303E0044AFB6861
:1010E00052F8233018461437BD465DF8047B70472C
:1010F0001C5E010880B582B000AF00237B6010E069
:101100000D4A7B6852F82330002B07D00A4A7B68CF
:1011100052F8233000211846FFF79BFC7B6801330F
:101120007B607B68072BEBD9044B1846FFF7BCFDAF
:1011300000BF0837BD4680BD1C5E010800000024CA
:1011400080B586B000AF00233B61204B1946204894
:1011500004F042FC1D4B19461E4804F03DFC0123DF
:101160003B613B461C49184605F084FF00237B6128
:1011700024E01A4A7B6952F82330002B18D0174A12
:101180007B6952F82330DB78002B13D13B695A1C62
:101190003A61DBB23033DBB27B72104A7B6952F8C2
:1011A00023301A463B461146184604F015FC02E06F
:1011B00000BF00E000BF7B6901337B617B69072BC7
:1011C000D7D900BF00BF1837BD4680BD000000243E
:1011D0003C5E01084C5E0108585E01081C5E010877
:1011E00080B584B000AF78600E4BFB6007F10A0356
:1011F0001946F868FFF72DFC7B680A2B02D10D20F9
:10120000FFF746FB7B68DBB21846FFF741FB7B89A3
:101210001946F868FFF700FC7B6818461037BD4692
:1012200080BD00BF0000002480B489B000AFF8602A
:10123000B9607A60EFF3108372B6BB82BB8AFB831E
:10124000FB681B68BB61BB68DB43BA691340BB61C9
:10125000BA697B681343BB61FB68BA691A60FB8B90
:10126000FB82FB8A13F0010F00D162B600BF00BF02
:101270002437BD465DF8047B7047000080B485B01C
:1012800000AF78607B68B3FA83F3FB60FB681846B5
:101290001437BD465DF8047B704780B483B000AF5F
:1012A000BFF34F8FBFF36F8F0B4B00221A600B4BB6
:1012B0001B687B607B6843F400337B60074A7B6874
:1012C0001360BFF34F8FBFF36F8F00BF0C37BD4666
:1012D0005DF8047B704700BF50EF00E014ED00E0C4
:1012E00080B483B000AFBFF34F8FBFF36F8F0B4B52
:1012F0001B687B607B6823F400337B60074A7B6854
:101300001360074B00221A60BFF34F8FBFF36F8F3C
:1013100000BF0C37BD465DF8047B704714ED00E05C
:1013200050EF00E080B400AFBFF34F8FBFF36F8F7B
:10133000054B00221A60BFF34F8FBFF36F8F00BFC2
:10134000BD465DF8047B704750EF00E080B588B083
:1013500000AF294B1B687B617B695B0BC3F30E03FA
:10136000FB617B6903F0070304333B617B69DB08A6
:10137000C3F30903FB60F868FFF780FF034603F03F
:101380001F03BB60BFF34F8FFB68BB61BA69BB68CB
:1013900002FA03F31946FA693B6902FA03F30B43B5
:1013A0007B60164A7B681360BB695A1EBA61002BCA
:1013B000ECD1FB695A1EFA61002BE5D1BFF34F8FC8
:1013C0000F4B1B683B603B6843F004033B600C4AD7
:1013D0003B6813600B4B1B683B603B6843F48033F6
:1013E0003B60084A3B681360BFF34F8FBFF36F8FBA
:1013F00000BF2037BD4680BD80ED00E060EF00E01B
:101400009CEF00E014ED00E080B588B000AF234B06
:101410001B687B617B695B0BC3F30E03FB617B691C
:1014200003F0070304333B617B69DB08C3F3090363
:10143000FB60F868FFF722FF034603F01F03BB6061
:10144000BFF34F8F164B1B687B607B6823F48033A0
:101450007B60134A7B681360FB68BB61BA69BB6839
:1014600002FA03F31946FA693B6902FA03F30B43E4
:101470003B600C4A3B681360BB695A1EBA61002B83
:10148000ECD1FB695A1EFA61002BE5D1BFF34F8FF7
:10149000BFF36F8F00BF2037BD4680BD80ED00E0F9
:1014A00014ED00E074EF00E080B487B000AF786026
:1014B0003960144B1B687B617B6903F007030433BD
:1014C0003B6101223B6902FA03F3FB60FB685B426C
:1014D0007A6813407B60BFF34F8F0B4A7B681360C1
:1014E0007A68FB6813447B607A683B689A42F4D35D
:1014F000BFF34F8FBFF36F8F00BF1C37BD465DF842
:10150000047B704780ED00E05CEF00E080B588B0C0
:1015100000AF1E4B1B687B617B695B0BC3F30E0343
:10152000FB617B6903F0070304333B617B69DB08E4
:10153000C3F30903FB60F868FFF7A0FE034603F05E
:101540001F03BB60BFF34F8FFB68BB61BA69BB6809
:1015500002FA03F31946FA693B6902FA03F30B43F3
:101560007B600B4A7B681360BB695A1EBA61002B13
:10157000ECD1FB695A1EFA61002BE5D1BFF34F8F06
:10158000BFF36F8F00BF2037BD4680BD80ED00E008
:1015900060EF00E080B483B000AF7860396000BFD6
:1015A0000C37BD465DF8047B704780B400AF00BFC8
:1015B000BD465DF8047B704780B582B000AF7860AF
:1015C000396039687868FFF76FFF00BF0837BD469C
:1015D00080BD80B500AFFFF799FF00BF80BD80B52B
:1015E00084B000AF786039603B68002B09D07A681E
:1015F0003B681344FB60F9687868FFF7CBFFFFF79F
:1016000091FE00BF1037BD4680BD00BFEFF30580DF
:101610001EF0040F02D0EFF309818D466A4602F1F5
:101620006802EFF310832DED108A2DE9FC4F694617
:101630006C4624F00702954600F07AFB214688426A
:1016400013D000F16C01B1E8F00FB1EC100A91E891
:101650000C00016821E90C0021ED100A21E9F00FCE
:10166000B0E8FC4F90EC108A03E0B1E8FC4FB1EC1D
:10167000108A1EF0040F0CBF81F3088881F30988DB
:1016800083F310887047000080B400AF00BFBD46F0
:101690005DF8047B704780B58EB000AF78607B68E2
:1016A0001B0903F00F033B623B6A072B02D96FF063
:1016B00015034FE1884A3B6A52F82330FB61FB690E
:1016C000002B02D16FF0150344E17B6803F00F0398
:1016D000BB617B6803F44023B3F5402F1DD0B3F505
:1016E000402F05D8B3F5802F05D0B3F5002F11D0CA
:1016F00000237B6214E07B6803F48073002B14BF2B
:1017000001230023DBB21946786800F038F9012381
:101710007B6205E002237B6202E003237B6200BF61
:10172000EFF3108372B67B817B89FB82FB691B68B8
:101730007B63BB695B00032202FA03F3DB431A46B7
:101740007B6B13407B63BB695B007A6A02FA03F32D
:101750007A6B13437B63FB697A6B1A6000233B63EC
:101760007B6A032B0FD07B6803F44033B3F5803FD3
:1017700003D0B3F5003F03D006E001233B6303E051
:1017800002233B6300E000BFFB690C331B687B63F3
:10179000BB695B00032202FA03F3DB431A467B6B4F
:1017A00013407B63BB695B003A6B02FA03F37A6B0D
:1017B00013437B63FB690C331A467B6B13607B6AB4
:1017C000022B05D17B681B0B03F00F033B6301E089
:1017D00000233B63BB69072B04D82023FB62BB6952
:1017E000BB6204E02423FB62BB69083BBB62FA696D
:1017F000FB6A13441B687B63BB6A9B000F2202FADF
:1018000003F3DB431A467B6B13407B63BB6A9B008D
:101810003A6B02FA03F37A6B13437B63FA69FB6A50
:1018200013441A467B6B13607B6A012B02D07B6AE0
:10183000022B1BD17B6803F44063B3F5406F11D0DA
:10184000B3F5406F05D8B3F5806F05D0B3F5006FE1
:1018500005D000233B6308E001233B6305E002233E
:101860003B6302E003233B6300BF01E000233B63D3
:10187000FB6908331B687B63BB695B00032202FAC8
:1018800003F3DB431A467B6B13407B63BB695B004E
:101890003A6B02FA03F37A6B13437B63FB690833F9
:1018A0001A467B6B1360FB6904331B687B63012260
:1018B000BB6902FA03F33B637B6A012B02D07B6AAC
:1018C000022B0BD17B6803F40073002B06D07A6BDC
:1018D0003B6B13437B6306E0645E01083B6BDB43B9
:1018E0007A6B13407B63FB6904331A467B6B13608E
:1018F0007B6A012B25D07B6803F48073002B20D0FA
:10190000BB6903F00C02154B13443B613B691B6838
:101910007B63BB699B0003F00C03FB600F22FB6839
:1019200002FA03F3DB431A467B6B13407B633A6A8C
:10193000FB6802FA03F37A6B13437B633B697A6BB0
:101940001A60FB8A3B813B8913F0010F00D162B61C
:1019500000BF002318463837BD4680BD0804005834
:1019600080B582B000AF78607B68DBB27B6078685E
:10197000FFF791FE034618460837BD4680BD80B488
:1019800087B000AF78600B46FB707B681B0903F0E3
:101990000F033B613B69072B1FD8134A3B6952F881
:1019A0002330FB60FB68002B17D07B6803F00F032C
:1019B000BB60FB78002B05D00122BB6802FA03F361
:1019C0007B6105E0BB681033012202FA03F37B61FF
:1019D000FB6818331A467B69136000BF1C37BD468D
:1019E0005DF8047B704700BF645E010880B487B077
:1019F00000AF78607B681B0903F00F037B617B6994
:101A0000072B19D8104A7B6952F823303B613B6998
:101A1000002B11D07B6803F00F03FB603B69103390
:101A20001B680121FA6801FA02F21340002B14BF6F
:101A300001230023DBB200E0002318461C37BD461B
:101A40005DF8047B704700BF645E010880B487B016
:101A500000AFF860B9607A603B60FB68103B7B6167
:101A6000FB680F2B56DD7B691F2B0CD83A68414B66
:101A70001344BA68136001227B6902FA03F31A4621
:101A80007B681A606EE07B693F2B0DD83A683A4B51
:101A90001344BA6813607B69203B012202FA03F306
:101AA0001A467B681A605DE07B695F2B0DD83A6847
:101AB000324B1344BA6813607B69403B012202FA3F
:101AC00003F31A467B681A604CE07B697F2B0DD8C4
:101AD0003A682B4B1344BA6813607B69603B012260
:101AE00002FA03F31A467B681A603BE07B69952B88
:101AF0000DD83A68234B1344BA6813607B69803B66
:101B0000012202FA03F31A467B681A602AE04FF0BA
:101B1000FF3328E0BB681C4A1A60FB68042B04D121
:101B20007B684FF480321A601CE0FB68052B04D1FF
:101B30007B684FF400321A6014E0FB68062B04D176
:101B40007B684FF480221A600CE0FB680F2B06D1F3
:101B5000BB680E4A1A607B6801221A6002E04FF0EF
:101B6000FF3300E0002318461C37BD465DF8047BB8
:101B7000704700BF00E100E004E100E008E100E0A0
:101B80000CE100E010E100E024ED00E010E000E0F6
:101B900080B586B000AF2E4B1B6803F00F030133F6
:101BA000FB60FB683B612B4B7B6109E07B694FF07D
:101BB000FF321A603B69013B3B617B6904337B6107
:101BC0003B69002BF2DC244B244A1A60244B4FF073
:101BD00080321A60234B4FF080321A60224B4FF054
:101BE00080321A60FB68DB003B61204B7B6109E0BF
:101BF0007B694FF080321A603B69013B3B617B6936
:101C000004337B613B69002BF2DC194B00221A6024
:101C1000002218490B2000F0AFFB002216490320D8
:101C200000F0AAFB154B1B68BB60BB6823F4806304
:101C3000BB60124ABB681360F0237B607B6883F350
:101C4000118800BF62B600BF00BF1837BD4680BD17
:101C500004E000E080E100E008ED00E000000008A2
:101C600018ED00E01CED00E020ED00E000E400E0F5
:101C700000050024011E00087D1D0008FCED00E0A9
:101C800080B586B000AF786007F10C0207F1100153
:101C900080237868FFF7DAFE0346002B13D17B68B8
:101CA0000F2B04DD3B691A46FB6813600BE03B69B0
:101CB0001B687B61FB68DB437A6913407B613B698E
:101CC0001A467B69136000BF1837BD4680BD80B5DA
:101CD00086B000AF786007F10C0207F11001002315
:101CE0007868FFF7B3FE0346002B12D17B680F2BF9
:101CF00004DD3B691A46FB6813600AE03B691B6818
:101D00007B61FB687A6913437B613B691A467B6997
:101D1000136000BF1837BD4680BD80B483B000AFEC
:101D2000786000BF0C37BD465DF8047B704700BF8C
:101D300080B584B000AF78603960042000F0D6F838
:101D40000D4B1B68FB600C4A3B6813607868FFF71B
:101D5000E4FF3968786800F04BFB074B1B683B6079
:101D6000054AFB681360042000F01AF93B68184626
:101D70001037BD4680BD00BF0005002480B588B087
:101D800000AFF860B9607A60BB68FB61FB698433BF
:101D90001B68023BBB61BB69134A934211D3BB6909
:101DA000124A93420DD2BB691B88FB82FB8AB3F5B2
:101DB0005F4F06D17A68B968F86800F021F80346E9
:101DC0000EE0EFF3108372B6BB82094B1B68094A21
:101DD0000949002005F0DCF98721084803F058FF85
:101DE00018462037BD4680BD000000087F700108FE
:101DF0002CED00E0BC5E0108845E0108A45E0108D1
:101E000080B586B000AFF860B9607A60BB687B616E
:101E10007B69DB6E3B613B69022B19D03B69022B6E
:101E200025D83B69002B03D03B69012B09D01EE06C
:101E30007B6970331B68D4227969184605F069F90B
:101E400016E07B6970331B681A460C4B1A600FE072
:101E50007B6970331B68D4227969184605F059F9FB
:101E60007B6974331B681A46044B1A6000E000BF9C
:101E7000002318461837BD4680BD00BF000500246A
:101E800080B500AF00F018F800BF80BD80B582B00B
:101E900000AF78600B46FB70064A7B6852F823302F
:101EA000FA7811461846FFF76AFD00BF0837BD46AD
:101EB00080BD00BFCC5E010880B582B000AF0023BA
:101EC0007B6009E0084A7B6852F823301846FFF728
:101ED000E2FB7B6801337B607B68022BF2D900BF99
:101EE00000BF0837BD4680BDCC5E010880B582B01A
:101EF00000AF78607B68013B072B4AD801A252F8FB
:101F000023F000BF251F00082F1F0008411F0008F5
:101F1000591F0008631F00086D1F00087F1F00087D
:101F2000891F000801210120FFF7B0FF32E00021E6
:101F30000120FFF7ABFF01210020FFF7A7FF29E0F9
:101F400001210020FFF7A2FF01210120FFF79EFFE2
:101F5000124B01221A701DE001210120FFF796FFAC
:101F600018E001210020FFF791FF13E0012102207A
:101F7000FFF78CFF01210120FFF788FF0AE0012114
:101F80000220FFF783FF05E001210220FFF77EFF1B
:101F900000E000BF00BF0837BD4680BD70020024CE
:101FA00080B582B000AF78607B68043B042B2AD8F0
:101FB00001A252F823F000BFD71F0008CD1F000870
:101FC000E11F0008F31F0008FD1F0008002100208A
:101FD000FFF75CFF18E000210120FFF757FF13E037
:101FE00000210220FFF752FF00210120FFF74EFFE2
:101FF0000AE000210220FFF749FF05E0002102204E
:10200000FFF744FF00E000BF00BF0837BD4680BDBA
:1020100080B586B000AF00233B61AB4B01221A7044
:10202000AA4B00221A60A94B00225A60A84B00223A
:102030001A60A74B00225A60A64B00221A60A54BDB
:1020400000225A60A44B00221A60A34B00225A605F
:10205000A24B00221A60A14B00225A60A04B002222
:102060001A609F4B00225A609E4B00221A609D4BC3
:1020700000225A609C4B00221A8000237B610EE0F4
:102080009A4A7B69002142F83310984A7B69DB0049
:1020900013444FF6FF729A807B6901337B617B6941
:1020A0000F2BEDDD904B1B881BB29BB203F00F038F
:1020B000FB603B694FF4AE7202FB03F38C4A1A4497
:1020C0008A49FB6841F83320874B1B8819B2874A3D
:1020D000FB68DB0013440A469A803B694FF4AE72FA
:1020E00002FB03F3824A13444FF4AE7200211846F8
:1020F00004F0A5FF7C4B1B8818B27D4A3B694FF466
:10210000AE7101FB03F313440C3302461A80784A84
:102110003B694FF4AE7101FB03F313441A330322FE
:102120001A70734A3B694FF4AE7101FB03F3134419
:102130001033704A1A606E4A3B694FF4AE7101FB6E
:1021400003F3134414336B4A1A60694A3B694FF432
:10215000AE7101FB03F313441C3306221A80664A56
:102160003B69664942F83310634A3B69DB0013441C
:1021700000225A603B69DB005F4A1A445C493B69B4
:102180004FF4AE7000FB03F30B4403F5AC731A601D
:102190004E4BBB603B694FF4AE7202FB03F3544AF3
:1021A0001344B968184603F02FFF3B694FF4AE7231
:1021B00002FB03F34E4A1A4451493B6941F823207C
:1021C0003B69002B09D13B694FF4AE7202FB03F36C
:1021D000474A1344184606F02FF93B4B02221A7067
:1021E0003A463B1D1146184605F02AFE7B683A68C0
:1021F0001146184605F0A4F8334B03221A700CF070
:102200006EF9404B002B01D000F038FE3E4B002B06
:1022100001D002F01BFD3D4B002B01D002F08EFEE1
:102220003B4B002B01D0AFF300803A4B002B01D089
:1022300002F0ADF8384B002B01D0AFF3008006F070
:10224000E9F8214B04221A700EF000FE3B694FF4AE
:10225000AE7202FB03F3264A1A4425493B694FF448
:10226000AE7000FB03F30B441C331B88DBB2194632
:10227000104600F00FFD3B694FF4AE7202FB03F312
:102280001B4A1344184600F09FFD3B694FF4AE72A1
:1022900002FB03F3164A1344184600F037FD144AB4
:1022A0003B694FF4AE7101FB03F3134408331B6821
:1022B00001221A7103F0E0FC034B05221A7000F0B2
:1022C0004BF806F0E2FAFCE7BE05002414050024F2
:1022D000B40500240C0500242C0500241C05002452
:1022E0000405002424050024BC0500243405002432
:1022F0007402002411200008D0030024205F01088C
:10230000C00500247D2E00084D4C00083D4F0008FC
:10231000000000008F4300080000000080B584B07A
:1023200002AF00237B607B680093064B4FF4006292
:102330006421054800F0D9F8386000BF0837BD4671
:1023400080BD00BFC58800082C5F010880B500AFC4
:10235000FFF7E4FF00BF80BD80B500AF0122044954
:10236000044800F0ADFBFFF7F1FF0023184680BDE5
:10237000345F0108385F010880B588B000AFF860AD
:10238000B9607A606FF01503FB61FB68A52B26D856
:10239000FB68BB61EFF3108372B6BB82BB8AFB8222
:1023A000BB68002B06D1F868FFF76AFC0E4BBB60D8
:1023B00000237B600D49BB69BA6841F833200B4AA2
:1023C000BB69DB0013447A685A60FB8A7B827B8A94
:1023D00013F0010F00D162B600BF0023FB61FB695F
:1023E00018462037BD4680BD59240008C405002486
:1023F00080B586B000AF78603960134B7B610023F5
:102400003B617B68FB607B68A52B10D80F4AFB689B
:1024100052F83330002B0AD00C4AFB6852F83330A4
:102420007B610A4AFB68DB0013445B683B617B69A4
:102430003A69396878689847054B1B68054A136004
:1024400000BF1837BD4680BD59240008C4050024CC
:1024500014050024C005002480B586B000AFF860E4
:10246000B9607A60EFF3108372B6FB8232210148C3
:1024700003F00EFC3C5F010880B58CB004AFF8603F
:102480007A603B600B46FB724FF4AE7004F098FF2D
:10249000F861FB69002B02D16FF00B0321E0FB7A9E
:1024A0009AB2FB699A833B68FA6A0292BA6A01920D
:1024B000009300237A68F968F86900F063F8B8615E
:1024C000BB69002B04DAF86904F04AFFBB6908E035
:1024D000FB699B89FB82FB69184600F07DFAB7F91E
:1024E000163018462037BD4680BD80B586B002AF95
:1024F000F860B9607A603B60BB6901933B68009308
:102500007B68BA680021F868FFF7B6FF03461846F3
:102510001037BD4680BD80B588B002AFF860B960A5
:102520007A603B603B6A00933B687A68B968F868F8
:10253000FFF7DBFF78617B69002B08DA03F0B4FB5F
:1025400002467B695B4213604FF0FF337B617B691E
:1025500018461837BD4680BD80B586B002AFF8601A
:10256000B9607A603B60BB6901933B6800937B680C
:10257000BA680221F868FFF77FFF03461846103754
:10258000BD4680BD80B58AB002AFF860B9607A60A0
:102590003B60FB689B8BDBB203F00303FB76FB68BD
:1025A0009B8BDBB21946F86800F074FBF861FB699D
:1025B000002B01DAFB695FE0F86800F035FCF86198
:1025C000FB69002B41DB3B68002B07D0FB68BA6A34
:1025D0003968184606F030F9F86107E0F868BB6A18
:1025E0002C33FA7E194605F0BFFEF861FB69002B1B
:1025F0002DDBFB682C21184606F0B2F878617B6968
:10260000002B03D16FF00B03FB6123E0FB7E0093F3
:10261000FB6A1B4A7968F86800F0A6F9F861FB6963
:10262000002B16DB3A6BB968F86800F0C5F9F8685A
:1026300000F06CFBF861FB69002B01D1FB691BE02A
:102640001049F86803F004FD04E000BF02E000BF99
:1026500000E000BF3B68002B09D1FB681B6C002B1E
:1026600005D0FB68FA7E1146184605F099FFFB6815
:10267000184600F089FBFB6918462037BD4680BD2F
:102680000D2A00082405002480B582B000AF7860D0
:102690000849786803F0DCFC7B689B8BDBB203F0B5
:1026A0000303DBB21946786800F084FC00BF0837EA
:1026B000BD4680BD2405002480B489B000AF786099
:1026C0004FF0FF337B61EFF3108372B67B817B8920
:1026D0007B820023BB6132E0224B1B881BB29BB282
:1026E00001339BB21AB21F4B114619801346FB836C
:1026F000B7F91E30002B04DC1A4B01221A8001238B
:10270000FB83FB8B03F00F03FB60174AFB6852F857
:102710003330002B10D11449FB687A6841F833201C
:10272000114AFB68DB001344FA8B9A807B68FA8BB2
:102730009A8100237B6106E0BB690133BB61BB6901
:102740000F2BC9DD00BF7B8A3B813B8913F0010F52
:1027500000D162B600BF7B6918462437BD465DF8DC
:10276000047B7047BC0500243405002480B586B086
:1027700000AFF860B9607A603B60F868FFF79CFFD3
:1027800078617B69002B4CD1BB68DAB2FB681A76A2
:10279000BB68DAB2FB685A76FB687A681A613A68F5
:1027A000FB685A6197F8203003F0030387F8203064
:1027B000FB689B8B23F003039AB2FB689A83FB6848
:1027C0009A8B97F820309BB213439AB2FB689A8396
:1027D000FB689B8B23F0C0039AB2FB689A83FB686B
:1027E0009B8B43F040039AB2FB689A83FB681422E8
:1027F0005A62FB684C331A460021032000F0B4FCF7
:10280000FB6800229A76F86805F016FE00F008FCD6
:102810000649F86803F0F8FBFB6804229A7600F09A
:102820001DFC7B6918461837BD4680BD2405002471
:1028300080B58AB000AF786039604A4B7B617869B7
:1028400004F032FC034601333B620023FB613B682A
:10285000002B26D01EE0FB699B003A6813441B68DE
:10286000184604F021FC034601333A6A13443B62E4
:102870007B68DB6B3A6A9A4202D36FF05A036CE0D2
:10288000FB690133FB61FB69B3F5807F02DD6FF00B
:10289000060362E0FB699B003A6813441B68002B47
:1028A000D9D1FB6902339B003B6178683A693B6A86
:1028B0001344194605F054FFF860FB68002B02D161
:1028C0006FF00B0349E0FA683B6913447B62FB68D5
:1028D0007A6A1A60786904F0E7FB03460133BB604B
:1028E0007969786A04F0C6FBBB687A6A13447B6234
:1028F0000023BB6121E0BB6901339B00FA681344EC
:102900007A6A1A60BB699B003A6813441B681846D0
:1029100004F0CAFB03460133BB60BB699B003A6805
:1029200013441B681946786A04F0A4FBBB687A6AF2
:1029300013447B62BB690133BB61BA69FB699A428C
:10294000D9DBFB6901339B00FA68134400221A604B
:102950007B68FA68C3F85821002318462837BD461B
:1029600080BD00BF545F010880B586B002AFF8603B
:10297000B9607A603B603B7E00933B687A68B968D7
:10298000F868FFF7F3FE034618461037BD4680BDD2
:1029900080B586B002AFF860B9607A603B60012311
:1029A00000933B687A68B968F868FFF7DFFE034672
:1029B00018461037BD4680BD80B584B000AFF860C2
:1029C000B9607A607968F868FFF732FF0346184605
:1029D0001037BD4680BD00BF80B584B000AF7860C1
:1029E000EFF3108372B67B817B89FB81786805F0F9
:1029F000E5FEFB89BB81BB8913F0010F00D162B6F4
:102A000000BF00BF1037BD4680BD000080B584B058
:102A100000AF1B4B1B687B600123FB600123BB6085
:102A200009E0BB680133BB60BB68B3F5807F02DDA2
:102A3000012000F02EF87B68D3F85821BB689B007A
:102A400013441B68002BECD17B689B8B03F00303C2
:102A5000022B09D17B685B697A68D2F8582111464C
:102A6000B8689847F86008E07B6858697B68D3F8D5
:102A700058311A46B96803F047FBF86800F009F8C6
:102A80001405002480B582B000AF7860786805F046
:102A9000A7FC80B584B000AF7860084B1B68FB6072
:102AA0007B68DBB27B60F86800F030FA002279685E
:102AB000F86800F096FF7868FFF7E4FF140500243B
:102AC00090B58DB000AFF860B9607A6000233B62CA
:102AD000FB68002B02D116233B6278E0BB68002B19
:102AE00003D0BB681B78002B09D17B68002B04D076
:102AF000F86800F07BF8034670E000236EE000F019
:102B00008FFA384B1B68FB61FB699B68BB61BB6933
:102B10005B6C002B12D0F968B86901F02BF8F862F1
:102B2000FB6A002B0AD07B68002B03D100F096FAD9
:102B3000002353E0F96AB86901F049F8F86804F035
:102B4000B3FA0446B86804F0AFFA034623440233EC
:102B50007B61BB695B6C002B18D0BB691A6C7B690D
:102B600013447B62BB695B6C7A6A1146184604F0B9
:102B700015FCB862BB6A002B02D10C233B6224E037
:102B8000BB691B6CBA6A1344FB620EE07B697B6213
:102B90007B69184604F0F2FBB862BB6A002B02D1D5
:102BA0000C233B6211E0BB6AFB62BB69BA6A5A64E0
:102BB0007A6ABB691A64BB68FA680B49F86A03F061
:102BC000FCFB00F04BFA002308E000F047FA03F0AA
:102BD0006BF802463B6A13604FF0FF3318463437F8
:102BE000BD4690BD14050024605F010880B588B023
:102BF00000AF7860264B1B68BB61BB699B687B613B
:102C00000023FB6100F00CFA7B69002B38D0796857
:102C1000786900F0AFFF38613B69002B30D039692B
:102C2000786900F0D4FF7B691B6CFB60FB68002BAC
:102C30000FDC7B695B6C002B07D07B695B6C1846F3
:102C400004F08EFB7B6900225A647B6900221A64BF
:102C500016E07B695B6CFA681146184604F09EFB2F
:102C6000B860BB68002B08D103F01EF803460C22A5
:102C70001A604FF0FF33FB6102E07B69BA685A6467
:102C800000F0ECF9FB6918462037BD4680BD00BF57
:102C90001405002480B584B000AF78600B46FB704B
:102CA0004FF4CC7004F08CFBF860FB68002B02D171
:102CB0006FF00B0326E07B68FA689A60F86800F012
:102CC000DBFEB860BB68002B07DAF86804F048FB4D
:102CD0007B6800229A60BB6814E0FB681033012215
:102CE0000021184603F020FAFB6808330022002177
:102CF000184603F019FAFB6808330021184603F060
:102D000081FA002318461037BD4680BD80B485B0D7
:102D100000AF78607B689B68FB607B68B3F90C2030
:102D2000FB681A80FB6801225A7100231846143789
:102D3000BD465DF8047B704780B582B000AF786017
:102D4000786800F092FB786800F0BAF87B684C3342
:102D500018460BF03FFC786802F0E7FF786800F057
:102D6000CFFE7B689B79002B07D07B681B7943F0F3
:102D70000803DAB27B681A7102E0786804F0F0FAAE
:102D800000BF0837BD4680BD80B584B000AF786015
:102D90007B689B68FB60FB68002B10D0FB685B794D
:102DA000012B06D9FB685B79013BDAB2FB685A71EB
:102DB00002E0F868FFF7C0FF7B6800229A6000BF5E
:102DC0001037BD4680BD000080B584B000AF78608C
:102DD0007B689B68FB60FB684C3318460BF0ECFB90
:102DE000032110480CF00AFCB860BB68002B0CD122
:102DF000012100200BF08AFD022100200BF086FD4E
:102E0000786800F028FF034607E0BB68002B02DD6E
:102E1000B8680BF00AFE6FF0160318461037BD466F
:102E200080BD00BF685F010880B586B000AF7860E4
:102E30007B689B687B61104B1B683B617B694C33F3
:102E400018460BF0B9FB3B699B6803F14C027B69A8
:102E50004C33194610460BF0B7FCF860FB68002BAA
:102E600001DAFB6803E0786800F0F5FE03461846D7
:102E70001837BD4680BD00BF1405002480B582B060
:102E800000AF00237B600DE00B4A7B680B4942F8E2
:102E90003310094A7B68DB00134400225A607B68C8
:102EA00001337B607B68A52BEEDDFEF771FE00BF72
:102EB0000837BD4680BD00BFC40500245924000862
:102EC00080B584B000AF786013E07B685B69FB601D
:102ED000FB681A687B685A61FB680C33184600F07F
:102EE00011F9FB680A33184600F00CF9F86804F091
:102EF00037FA7B685B69002BE7D17B681033184693
:102F000000F000F900BF1037BD4680BD80B586B027
:102F100000AF786000F084F823E0EFF3108372B61E
:102F2000BB81BB89FB827B681B6F3B613B691A6875
:102F30007B681A673B6900221A60FB8AFB81FB8968
:102F400013F0010F00D162B600BF3B691B7A43F05A
:102F50000203DAB23B691A723B690433184600F087
:102F60002DFF7B681B6F002BD7D100F077F800BFD7
:102F70001837BD4680BD000080B485B000AF034661
:102F8000FB80FB8803F00F03FB60094AFB6800210C
:102F900042F83310064AFB68DB0013444FF6FF7219
:102FA0009A8000BF1437BD465DF8047B704700BFB0
:102FB0003405002480B584B000AF78600B46FB7008
:102FC0000023FB607B68002B22D0144B002B05D024
:102FD0007B68B3F90C301846AFF300807B68B3F917
:102FE0000C30002B05D07B68B3F90C301846FFF786
:102FF000C3FF7B681B6C002B04D0FB7819467868F4
:1030000005F0CEFA7868FFF7BFFE786804F0A8F9FB
:10301000FB6818461037BD4680BD00BF00000000A9
:1030200080B582B000AF0C4B1B687B607B68002BC7
:103030000DD005F047FA0346002B08D17B68B3F9A1
:103040001E309BB201339BB21AB27B68DA83002335
:1030500018460837BD4680BD1405002480B584B0ED
:1030600000AF264B1B68FB60FB68002B40D005F0CF
:1030700029FA0346002B3BD1EFF3108372B63B8154
:103080003B897B81FB68B3F91E30002B08DDFB68B0
:10309000B3F91E309BB2013B9BB21AB2FB68DA83D4
:1030A000FB68B3F91E30002B1ADCFB680022DA83C0
:1030B000134B1B68002B01D005F038FAFB689B8B83
:1030C00003F0C003402B0BD1FB685B6A002B07D1D8
:1030D0000A4B1B68FA689A4202D0FB6814225A62B3
:1030E0007B89FB80FB8813F0010F00D162B600BF23
:1030F000002318461037BD4680BD00BF14050024CC
:10310000B405002480B483B000AF78607B68002BE6
:1031100009D07B681B881BB2002B02DB7B68012275
:103120001A80002301E06FF0150318460C37BD46E6
:103130005DF8047B704780B584B000AF7860786834
:10314000FFF7E0FFF860FB68002B08DA02F0ACFD47
:103150000246FB685B4213604FF0FF33FB60FB6885
:1031600018461037BD4680BD80B588B000AFF86006
:10317000B9607A60274B1B68BB610023FB61FFF7D6
:103180004FFF7B68002B03D0BB69DA6C7B681A6049
:10319000BB68002B36D0EFF3108372B6BB82BB8ABC
:1031A000FB82FB68032B1AD0FB68032B1CDCFB683B
:1031B000012B03D0FB68022B08D015E0BB69DA6C49
:1031C000BB681B681A43BB69DA6411E0BB69DA6C3F
:1031D000BB681B68DB431A40BB69DA6408E0BB6864
:1031E0001A68BB69DA6403E06FF01503FB6100BF86
:1031F000FB8A7B827B8A13F0010F00D162B600BF8D
:1032000000F028F8FFF72AFFFB6918462037BD4673
:1032100080BD00BF1405002480B586B000AFF86003
:10322000B9607A607A68B968F868FFF79DFF7861DD
:103230007B69002B08DA02F037FD02467B695B42AE
:1032400013604FF0FF337B617B6918461837BD462A
:1032500080BD00BF90B585B000AF1F4B1B68FB6001
:10326000FFF7DEFEFB68DB6CDC43F86801F0E2F997
:10327000034623403B603B68002B03D1FFF7EEFE83
:10328000002324E03B46184600F0AAF8B860BB686B
:10329000B3F1FF3F15D03B46B968184603F020F85C
:1032A000B968F86800F01AF878607B68002B08D0DD
:1032B0007B6804331946F86800F0FFF9786800F07D
:1032C0004FF83B68002BDDD1FFF7C8FE01231846FD
:1032D0001437BD4690BD00BF1405002480B588B0EA
:1032E00000AF786039607B689B687B61EFF3108387
:1032F00072B63B823B8A7B820023BB617B699B6BFE
:10330000FB6104E0FB69BB61FB691B68FB61FB6956
:10331000002B05D0FB691B791A463B689342F1D11B
:10332000FB69002B0ED0BB69002B06D07B693833BC
:103330001946B86902F03FFE04E07B69383318464D
:1033400002F01AFE7B8AFB81FB8913F0010F00D18A
:1033500062B600BFFB6918462037BD4680BD00003D
:1033600080B586B000AF78607B681B7B002B11D1E5
:10337000EFF3108372B67B827B8AFB8216497868F2
:1033800002F069FDFB8ABB82BB8A13F0010F00D1FA
:1033900062B61DE07B681B7B022B11D1EFF310831B
:1033A00072B6FB81FB89FB820C49786802F053FD01
:1033B000FB8A3B823B8A13F0010F00D162B607E023
:1033C0007B681B7B012B03D1786803F0C9FFFFE703
:1033D00000BF1837BD4680BD140B00240C0B002421
:1033E00080B584B000AF78600123FB600BE0F96822
:1033F000786802F0ABFF0346002B01D0FB6807E0C2
:10340000FB680133FB60FB681F2BF0DD4FF0FF33DF
:1034100018461037BD4680BD80B584B000AF7860D7
:1034200002E0F86801F096F97B685433184602F020
:10343000A3FDF860FB68002BF3D102E0F86801F00F
:1034400089F97B685C33184602F096FDF860FB68EA
:10345000002BF3D17B684FF0FF32DA647B680022E7
:103460001A6500BF1037BD4680BD80B584B000AF7F
:10347000786002E0F86801F0B3F87B6830331846F2
:1034800002F07AFDF860FB68002BF3D102E0B86827
:10349000FFF766FF7B683833184602F06DFDB860B1
:1034A000BB68002BF3D100BF00BF1037BD4680BD05
:1034B00080B588B000AF786039600023FB61FFF70A
:1034C000AFFD7B689A683B681B781946104601F08F
:1034D000E1F8B861BB69002B40D0BB695B68002B89
:1034E0003CD001F0FBF878617B69002B03D16FF0D1
:1034F0000B03FB6132E0BB695A687B695A60BB69A8
:103500009A687B699A60BB69DB6803F02003002B33
:1035100009D17B699A683B681B78194601238B4067
:103520001A437B699A607B690C3308223968184614
:1035300003F0EFFDEFF3108372B6FB81FB897B8212
:103540007B6854331946786902F085FC7B8A3B829C
:103550003B8A13F0010F00D162B600BFFFF77EFD7A
:10356000FB6918462037BD4680BD80B584B000AFEA
:1035700004F0A8FF0346002B0BD0184802F0FCFC17
:10358000F860FB68002B23D1154802F0F5FCF860C9
:103590001EE0EFF3108372B6FB80FB887B810F483F
:1035A00002F0EAFCF8607B893B813B8913F0010F54
:1035B00000D162B600BFFB68002B09D1102003F0D8
:1035C000DDFEF860FB68002B02D0FB6801221A7355
:1035D000FB6818461037BD4680BD00BF140B0024A1
:1035E0000C0B002480B487B000AF786039600023F2
:1035F0007B61EFF3108372B63B823B8A7B827B68F0
:103600009B6B7B6102E07B691B687B617B69002BA4
:1036100005D07B691B791A463B689342F3D17B8ABC
:10362000FB81FB8913F0010F00D162B600BF7B69FB
:1036300018461C37BD465DF8047B704780B586B0E0
:1036400000AF786039607B689B687B613B681B7862
:1036500019467869FFF7C6FF38613B69002B07D030
:103660003B69043308223968184603F052FD20E014
:10367000FFF77BFF38613B69002B1AD03B690433AD
:1036800008223968184603F044FDEFF3108372B640
:103690007B817B89FB817B6938331946386902F06D
:1036A000DAFBFB89BB81BB8913F0010F00D162B645
:1036B00000BF00BF1837BD4680BD80B588B000AFE1
:1036C000786039600023FB613B681B78002B01D1D7
:1036D00000238EE07B6803F14C023B681B7819469F
:1036E000104602F033FEB861BB69012B3BD1EFF30A
:1036F000108372B6BB82BB8AFB827B689B7E062BE3
:1037000024D1BB69002B0BD07B6803F150023B68CE
:103710001B781946104602F019FE0346002B15D0FF
:103720007B68643308223968184603F0F2FC7B6832
:1037300000221A65786805F041F8FB8A7B827B8A53
:1037400013F0010F00D162B600BF34E0FB8A3B8268
:103750003B8A13F0010F00D162B600BF3968786868
:10376000FFF76CFF27E039687868FFF7A1FEF86182
:10377000EFF3108372B6FB81FB89FB821F497868E7
:1037800004F030FF7B689B7E062B0CD17B68643392
:1037900008223968184603F0BCFC7B6800221A65D1
:1037A000786805F00BF8FB8ABB81BB8913F0010F29
:1037B00000D162B600BFBB69002B13D17B689B7E32
:1037C000052B03D10421786800F053FD7B689B7EB4
:1037D000072B03D07B689B7E082B03D104217868DC
:1037E00000F07EFABB69002B02DA6FF01503FB6173
:1037F000FB6918462037BD4680BD00BF3938000838
:1038000080B584B000AF03463960FB80B7F906305D
:10381000184600F0EBFAF860FB68002B02D16FF05D
:10382000020304E03968F868FFF747FF03461846CB
:103830001037BD4680BD00BF80B58AB000AF78604C
:10384000EFF3108372B67B827B8AFB847B689B8B51
:1038500003F40073002B08D0FB8C3B823B8A13F0EF
:10386000010F00D162B600BF6CE07B68543318468C
:1038700002F082FB38623B6A002B08D1FB8CFB8193
:10388000FB8913F0010F00D162B600BF5AE07B68DC
:103890009B8B43F400739AB27B689A837B685C339A
:1038A0001946386A02F0D7FA7B68DB6CFB613B6A29
:1038B0009B68FA691343BB617B68BA69DA64FB8C65
:1038C0003B813B8913F0010F00D162B600BF3B6A18
:1038D0005B683A6A127B10463A6A02F10C010022D8
:1038E0009847EFF3108372B67B817B89FB847B68FA
:1038F0009B8B23F400739AB27B689A837B68DB6CA2
:10390000BA6953407B617B68DA6C7B691A407B69DA
:10391000D943FB690B401A437B68DA647B685C33EC
:103920001946386A02F0F0FAFB8CBB81BB8913F0B0
:10393000010F00D162B600BFFFF78CFC386A00F0BF
:1039400009FF7DE700BF2837BD4680BD80B584B044
:1039500000AF786039607B689B68FB60FB68002B78
:1039600023D07B689B8B03F00303012B08D0FB68FB
:10397000DB68002B04D0FB68DB683A6812021A602F
:10398000FB685B79012B10D1FB680022DA60FB68D1
:103990000022DA7104E0FB680833184600F0C8FB27
:1039A000FB681B891BB2002BF5DB00BF1037BD463F
:1039B00080BD80B584B000AF78607B689B68FB6099
:1039C000FB68002B09D0FB685B79012B05D17B6874
:1039D0009B685433184603F07DFA00BF1037BD468C
:1039E00080BD80B584B000AFF860B9601346FB714C
:1039F000FB689B8B03F40063002B1AD1FB79002B2F
:103A000002D1F868FFF7D5FFF86800F016F8B9683A
:103A1000F868FFF79BFFF868FFF7B6F9F868FFF75B
:103A2000FBFCFB689B8B43F400639AB2FB689A83B0
:103A300000E000BF1037BD4680BD80B582B000AF4A
:103A40007860786800F00AF8786800F0E7FB78683A
:103A500000F021F900BF0837BD4680BD80B582B0B7
:103A600000AF78607B682833184600F0D7FF00BFAE
:103A70000837BD4680BD000080B586B000AF7860D5
:103A80001E4B1B68BB6000237B610023FB60FFF7BC
:103A9000C7FABB689B68002B28D0BB689B685B6C2F
:103AA000002B23D0BB689B681B6C3B6100237B61B0
:103AB0003B69002B14D0386903F060FC78617B69A6
:103AC000002B05D100233B616FF00B03FB6007E087
:103AD000BB689B685B6C3A691946786903F019FB0F
:103AE0007B683A691A647B687A695A64FFF7B6FAA8
:103AF000FB6818461837BD4680BD00BF140500247A
:103B000080B582B000AF78607B685B6C002B04D01E
:103B10007B685B6C184603F023FC7B6800221A6408
:103B20007B6800225A6400BF0837BD4680BD80B460
:103B300083B000AF7860396005E07B6801337B605B
:103B40003B6801333B607B681A783B681B789A427C
:103B5000F3D07B681B78002B05D13B681B783D2B8D
:103B600001D1012300E0002318460C37BD465DF863
:103B7000047B704780B584B000AF786039607B68A3
:103B80005A6C7B681B6C1344BB607B685B6CFB608E
:103B900007E0F86803F088FA03460133FA68134433
:103BA000FB60FA68BB689A4206D2F9683868FFF78A
:103BB000BEFF0346002BECD0FA68BB689A4201D2E4
:103BC000FB6800E0002318461037BD4680BD80B575
:103BD0008AB000AF786039604FF0FF337B627B685A
:103BE0001B6C7B617B685A6C7B6913443B617B680F
:103BF0005B6C3A689A4229D33A683B699A4225D26B
:103C0000386803F051FA03460133FB60FB683A68F9
:103C100013443B623B68FB613A693B6AD31ABB6160
:103C200007E03A6A531C3B62FB69591CF961127840
:103C30001A70BB695A1EBA61002BF2DC7B681A6CE1
:103C4000FB68D21A7B681A6400237B627B6A184681
:103C50002837BD4680BD80B582B000AF78607B68F4
:103C60009B68184602F02CF800237A680121002096
:103C70000CF072FA00237A68062101200CF06CFA2D
:103C800000237A68062102200CF066FA0023184609
:103C90000837BD4680BD80B483B000AF78607B68D4
:103CA0009B7E072B09D17B68DB6EB3F9122092B2A1
:103CB000013A92B212B25A820CE07B689B7E082BCA
:103CC00008D17B68DB6EB3F9102092B2013A92B250
:103CD00012B21A8200BF0C37BD465DF8047B7047F4
:103CE00080B586B000AF78603960EFF3108372B6AC
:103CF000FB81FB89FB827B689B7E072B03D07B6863
:103D00009B7E082B23D17B68DB6E3B617B680022A6
:103D1000DA667B689B7E072B09D13B69B3F91230C9
:103D20009BB2013B9BB21AB23B695A8208E03B69E5
:103D3000B3F910309BB2013B9BB21AB23B691A82B5
:103D40003B681AB27B681A84786804F037FDFB8AF6
:103D5000BB81BB8913F0010F00D162B600BF00BF69
:103D60001837BD4680BD80B586B000AFF860B96039
:103D70001346FB71FB79002B0DD0BB68002B04D1DF
:103D8000F86800F069F8786112E0B968F86800F046
:103D9000E7F878610CE0BB68002B04D1F86800F00C
:103DA000B1F8786104E0B968F86800F0E8F8786183
:103DB0007B695B4218461837BD4680BD80B584B02C
:103DC00000AF78607B68002B0BD0786800F0B0F90A
:103DD000F860FB68002B02DAFB685B4202E000231C
:103DE00000E0162318461037BD4680BD80B487B06A
:103DF00000AF0346FB8000237B61B7F90630002B40
:103E000020DBFB8803F00F033B61EFF3108372B6F6
:103E1000BB81BB89FB810F4A3B69DB001344B3F9CB
:103E20000430B7F906209A4204D10A4A3B6952F895
:103E300033307B61FB897B817B8913F0010F00D1DB
:103E400062B600BF7B6918461C37BD465DF8047B2F
:103E5000704700BF3405002480B586B000AF78609D
:103E6000274B1B683B616FF015037B61EFF31083F9
:103E700072B6BB81BB89FB817B68002B32D07B682B
:103E80001B881BB2002B0EDD7B681B881BB29BB20C
:103E9000013B9BB21AB27B681A803B6900229A648C
:103EA00000237B611EE07B681B881BB29BB2013B39
:103EB0009BB21AB27B681A803B697A689A643B6944
:103EC00000221A840521386904F0DCF93B69B3F952
:103ED0002030002B04D03B69B3F920305B4200E076
:103EE00000237B61FB897B817B8913F0010F00D16B
:103EF00062B600BF7B6918461837BD4680BD00BF5B
:103F00001405002480B584B000AF78607868FFF7AE
:103F1000A3FFF860FB6813F1040FF7D0FB681846A5
:103F20001037BD4680BD80B584B000AF786078683A
:103F3000FFF792FFF860FB68002B0BDAFB685B422F
:103F4000BB6000BF01F0B0FE0246BB6813604FF0DB
:103F5000FF3300E0002318461037BD4680BD00BF88
:103F600080B582B000AF786039603A680021786827
:103F700000F024F8034618460837BD4680BD80B5DA
:103F800082B000AF786039603A680021786800F04C
:103F900071F8034618460837BD4680BD80B582B02B
:103FA00000AF786039603A680021786800F079F8ED
:103FB000034618460837BD4680BD0000B0B588B03E
:103FC00000AFF8600B467A60FB72274B1B68BB6141
:103FD0004FF0FF33FB61F86800F0E2FDF861FB6928
:103FE000002B3BD07B685B68002B04DB7B685B6845
:103FF0001E4A934203DD6FF01503FB612FE007F1CA
:104000001002FB7A7968184600F085FD78617B69BB
:10401000002B06D13B69002B03DC6FF07303FB61BF
:104020001DE07B69002B03D07B695B42FB6116E0DE
:10403000BB6903F128043D6900F0CCFB03460C4A40
:104040002946204600F01AFCF868FFF705FFF861E2
:10405000BB692833184600F0E1FC00E000BFFB69B3
:1040600018462037BD46B0BD14050024FFC99A3B51
:10407000E140000880B586B000AFF8600B467A607A
:10408000FB72FB7A7A681946F868FFF797FF786148
:104090007B6913F1040FF4D07B6918461837BD46CD
:1040A00080BD80B586B000AFF8600B467A60FB72C9
:1040B000FB7A7A681946F868FFF780FF78617B69B8
:1040C000002B08DA01F0F0FD02467B695B421360C9
:1040D0004FF0FF337B617B6918461837BD4680BDC2
:1040E00080B586B000AF7860EFF3108372B6FB81C5
:1040F000FB89FB827B681BB21846FFF777FE3861AD
:104100003B69002B07D03B699B7E052B03D17421B3
:10411000386900F0AEF8FB8ABB81BB8913F0010F50
:1041200000D162B600BF00BF1837BD4680BD000099
:1041300080B586B000AF786000237B616FF0150317
:104140003B617B68002B47D0EFF3108372B6BB81D5
:10415000BB89FB817B681B881BB247F6FF729342C9
:104160000AD1FB897B817B8913F0010F00D162B6F4
:1041700000BF6FF08A0330E07B681B881BB29BB2E4
:1041800001339BB21AB27B681A807B681B881BB212
:10419000002B17DC134B1B687B6102E07B691B68FB
:1041A0007B617B69002B04D07B699B6C7A689A42A7
:1041B000F4D17B69002B05D07B6900229A64786971
:1041C00004F0FCFA00233B61FB893B813B8913F03F
:1041D000010F00D162B600BF3B6918461837BD46D3
:1041E00080BD00BF0C05002480B584B000AF7860AE
:1041F0007868FFF79DFFF860FB68002B08DA01F094
:1042000053FD0246FB685B4213604FF0FF33FB60D7
:10421000FB6818461037BD4680BD00BF80B487B02C
:1042200000AF7860EFF3108372B6FB81FB89FB82ED
:104230007B689B7E052B0ED17B689B6C3B613B6949
:104240001B881BB29BB201339BB21AB23B691A8026
:104250007B6800229A64FB8ABB81BB8913F0010F43
:1042600000D162B600BF00BF1C37BD465DF8047BBD
:10427000704780B586B000AF78603960EFF3108387
:1042800072B6FB81FB89FB827B689B7E052B15D177
:104290007B689B6C3B613B691B881BB29BB2013303
:1042A0009BB21AB23B691A807B6800229A643B6811
:1042B0001AB27B681A84786804F080FAFB8ABB81A2
:1042C000BB8913F0010F00D162B600BF00BF1837E1
:1042D000BD4680BD80B586B000AF78600B467B8060
:1042E00013467B707A8813465B001344DB00184644
:1042F00003F044F8F860FB68002B16D0FB687B6184
:1043000000233B610DE07B697A781A757B6903F1C4
:1043100018027A617968184601F09DFD3B69013306
:104320003B617B883A699A42EDDBFB681846183797
:10433000BD4680BD80B586B000AF78600B467B80FF
:1043400013467B707B881B01184603F017F8F86052
:10435000FB68002B16D0FB687B6100233B610DE0FE
:104360007B697A781A737B6903F110027A61796844
:10437000184601F070FD3B6901333B617B883A6967
:104380009A42EDDBFB6818461837BD4680BD80B504
:1043900000AF204B00221A601E4B00225A601E4BB9
:1043A00000221A601C4B00225A601C4B00221A602B
:1043B0001A4B00225A601A4B00221A60184B002236
:1043C0005A60184B00221A60164B00225A600022D5
:1043D00004211148FFF77EFF0346134A13600222AF
:1043E00008210E48FFF776FF0346104A13600022AB
:1043F00004210B48FFF79EFF03460D4A136002227B
:1044000008210848FFF796FF03460A4A136000BFD9
:1044100080BD00BFF40A0024FC0A0024040B002421
:10442000140B00240C0B0024DC030024E003002404
:10443000E4030024E803002480B582B000AF5020DC
:1044400002F09CFF03460F4A13600E4B1B68002BC3
:1044500013D00C4B1B687B6000233B600AE07B6839
:1044600003F114027A600849184601F0F4FC3B6835
:1044700001333B603B68032BF1DD00BF0837BD46CD
:1044800080BD00BFD8030024F40A002480B582B0A8
:1044900000AF094801F070FD78607B68002B05D102
:1044A000FFF7CAFF044801F067FD78607B68184693
:1044B0000837BD4680BD00BFF40A002480B588B02F
:1044C00000AFF860B9607A60FB70354B1B68BB6168
:1044D000BB699B687B61FB681F2B02D96FF01503DA
:1044E0005AE0F968786900F0D5F8F8617B68002B2C
:1044F00018D0FB69002B0CD0FB695A687B681A60E6
:10450000FB699A687B685A60FB69DA687B689A6025
:1045100008E07B6800221A607B6800225A607B6892
:1045200000229A60BB68002B01D1002334E0BB68F5
:104530001B683B613B69002B0CD1FB69002B2AD027
:104540007B6930331946F86901F0DEFCF86900F048
:1045500047F820E0FB69002B12D1FFF797FFF861C5
:10456000FB69002B02D16FF00B0315E0FB68DAB298
:10457000FB691A747B6930331946F86901F06BFCEA
:10458000FB693A695A60BB685A68FB699A60BB6804
:104590009A68FB69DA60002318462037BD4680BD63
:1045A0001405002480B586B000AFF860B9607A6069
:1045B00000237A68B968F868FFF780FF78617B6943
:1045C000002B08DA01F070FB02467B695B42136046
:1045D0004FF0FF3300E0002318461837BD4680BD7A
:1045E00080B582B000AF78600349786801F033FC91
:1045F00000BF0837BD4680BDF40A002480B584B0F2
:1046000000AF78600A4B1B68BB604FF0FF33FB6064
:104610007B68002B07D0B86800F00CF802467B6876
:104620001A600023FB60FB6818461037BD4680BD4A
:104630001405002480B588B000AF78607B689B6863
:10464000BB610023FB60EFF3108372B6BB82BB8AB1
:10465000FB82BB699B6BFB610BE0FB691B791A4614
:1046600007F10C031146184601F005FEFB691B68B3
:10467000FB61FB69002BF0D1FB8A7B827B8A13F004
:10468000010F00D162B600BFFB6818462037BD4657
:1046900080BD00BF80B584B000AF78603960002372
:1046A000FB607B68002B13D0FEF7BAFC7B681B6BAA
:1046B000FB6002E0FB681B68FB60FB68002B05D019
:1046C000FB681B7C1A463B689342F3D1FEF7C6FC9D
:1046D000FB6818461037BD4680BD000080B584B029
:1046E00000AF03F0EFFE0346002B0BD0174801F09C
:1046F00043FCF860FB68002B23D1154801F03CFC1B
:10470000F8601EE0EFF3108372B6FB80FB887B81BC
:104710000E4801F031FCF8607B893B813B8913F046
:10472000010F00D162B600BFFB68002B09D1182031
:1047300002F024FEF860FB68002B02D0FB68012227
:104740001A75FB6818461037BD4680BDFC0A002468
:10475000040B002480B586B000AF78607B681B7DB9
:10476000002B11D1EFF3108372B67B827B8AFB8220
:104770001649786801F06FFBFB8ABB82BB8A13F095
:10478000010F00D162B61DE07B681B7D022B11D1A9
:10479000EFF3108372B6FB81FB89FB820C497868CA
:1047A00001F059FBFB8A3B823B8A13F0010F00D1D9
:1047B00062B607E07B681B7D012B03D1786802F0AD
:1047C000CFFDFFE700BF1837BD4680BDFC0A0024BF
:1047D000040B002480B483B000AF0C4B1B687B60DB
:1047E0007B68002B0AD07B689B7E032B03D17B6800
:1047F000B3F90C3003E06FF0020300E00023184629
:104800000C37BD465DF8047B704700BF14050024DB
:1048100080B582B000AF184B1B689B68002B27DC6B
:104820001DE0154801F0A8FB7860134B1B68002BB6
:1048300008D0114B1B6899687B689A680E4B1B68FF
:104840000A449A607B681B7B23F00103DAB27B6821
:104850001A737B685B687A68126910469847064B42
:104860001B68002B04D0044B1B689B68002BD8DD11
:1048700000BF0837BD4680BD1C0B002480B58AB040
:1048800000AFF860B9607A603B60FB68002B02D033
:10489000BB68002B02DA6FF01503A7E0EFF310837B
:1048A00072B67B827B8A7B83FB681B7B03F00103F0
:1048B000002B02D0F86800F0B1F8FB687A685A6003
:1048C000FB683A681A61BB68002B02DC0123BB60FD
:1048D00008E0BB680133BB60BB68002B02DCBB682F
:1048E000013BBB60434B1B68002B04D14149F86876
:1048F00001F0B1FA67E00023FB613E4B1B687B626D
:104900007B6A3B6204E07B6A3B627B6A1B687B627A
:104910007B6A9B68FA691344FB61FB69002B0EDA22
:104920007B6A1B68002BEED109E07B6A3B627B6AE5
:104930001B687B627B6A9B68FA691344FB61FA69B6
:10494000BB689A4203DC7B6A1B68002BEDD1BA6816
:10495000FB699A421CDA7B6A9B68FA69D31ABA68C7
:10496000D31ABB607B6A9A68BB68D21A7B6A9A606A
:10497000204B1B687A6A9A4204D11E49F86801F0FC
:104980008AFA20E01B4AF968386A01F09DFA1AE0B9
:10499000BA68FB69D31ABB607B6A1B68002B04D121
:1049A0001449F86801F057FA0DE07B6A1B687B61D7
:1049B0007B699A68BB68D21A7B699A600D4AF9686C
:1049C000786A01F081FAFB68BA689A60FB681B7B21
:1049D00043F00103DAB2FB681A737B8B3B823B8A9C
:1049E00013F0010F00D162B600BF0023184628372C
:1049F000BD4680BD1C0B002480B500AF064B1B6874
:104A0000002B06D0044B1B689A68013A9A60FFF7A6
:104A1000FFFE00BF80BD00BF1C0B002480B588B026
:104A200000AF78606FF015037B61EFF3108372B60F
:104A30003B823B8A7B827B68002B3BD07B681B7B65
:104A400003F00103002B35D00023BB61204B1B6812
:104A5000FB6104E0FB69BB61FB691B68FB61FB69EF
:104A6000002B03D0FA697B689A42F3D1FB691B687B
:104A7000002B08D0FB691B689968FB699A68FB6981
:104A80001B680A449A60BB69002B04D01049B869BE
:104A900001F091FA02E00E4801F06EFA7B68002204
:104AA0001A607B681B7B23F00103DAB27B681A7300
:104AB00000237B617B8AFB81FB8913F0010F00D10E
:104AC00062B600BF7B6918462037BD4680BD00BF77
:104AD0001C0B002480B483B000AF786039607B6821
:104AE0001A683B681B689A4202D24FF0FF330CE011
:104AF0007B681A683B681B689A4201D9012304E06D
:104B00007B685A683B685B68D31A18460C37BD4609
:104B10005DF8047B704780B58AB000AF0346B9608A
:104B20007A60FB7307F11C02FB7B1146184600F00C
:104B30009DF878627B6A002B01D0162329E007F1EB
:104B40001C031946B868FFF7C5FF0346002B05DABA
:104B50007B684FF0FF321A6000231AE0BB685A6886
:104B60003B6AD31ABB61BB681A68FB69D31A7B61C5
:104B7000BB69002B06DABA69084B1344BB617B6939
:104B8000013B7B6107F114037968184600F0D8F8FF
:104B9000034618462837BD4680BD00BF00CA9A3B71
:104BA00080B487B000AF78601A4B1B683B617B68AC
:104BB000002B24D0EFF3108372B6BB81BB89FB813D
:104BC0007B681B881BB2002B0EDD7B681B881BB229
:104BD0009BB2013B9BB21AB27B681A803B690022F0
:104BE0009A6400237B6102E06FF00A037B61FB891A
:104BF0007B817B8913F0010F00D162B602E06FF078
:104C000015037B617B6918461C37BD465DF8047B44
:104C1000704700BF1405002480B584B000AF7860F1
:104C20007868FFF7BDFFF860FB68002B08DA01F039
:104C30003BF80246FB685B4213604FF0FF33FB60BA
:104C4000FB6818461037BD4680BD00BF80B400AF7A
:104C5000054B00221A60044B00225A6000BFBD467B
:104C60005DF8047B704700BF1C0B002480B588B042
:104C700000AF03463960FB710023FB61FB79002B19
:104C800040D107F10803184600F09EF8F861FB696F
:104C9000002B3AD1EFF3108372B63B823B8A7B83C1
:104CA000BA68224B1B681344BB60FB681A461F4B53
:104CB0005B681344FB607B8B7B827B8A13F0010F64
:104CC00000D162B600BFFB68194A934213DDFB684E
:104CD000184A82FB03121217DB17D31A7B61BA68DA
:104CE0007B691344BB60FB6819467B69124A02FB6F
:104CF00003F3CB1AFB60BA683B681A60FA683B683A
:104D00005A6002E06FF01503FB61FB69002B08DAC3
:104D100000F0CAFF0246FB695B4213604FF0FF33AD
:104D2000FB61FB6918462037BD4680BD240B00247B
:104D3000FFC99A3BA12FB84400CA9A3B000000006B
:104D40002DE9B04384B000AF786039607B681B68A0
:104D50001A464FF000031A4901FB03F0002101FB42
:104D600002F101441648A2FB002319440B4679685E
:104D7000496808464FEAE071141843EB0105C7E99A
:104D80000245D7E902230CA1D1E9000112EB00088A
:104D900043EB01090B4A4FF00003404649460CF033
:104DA0005DF802460B463B681A6000231846103730
:104DB000BD46BDE8B08300BF7F96980000000000AC
:104DC00000CA9A3B809698002DE9B04F8AB000AF98
:104DD000F8604A4B1B6898464FF0000942464B4624
:104DE0004FF000004FF00001990041EA92719000ED
:104DF00002460B4612EB080243EB09039118396097
:104E00005B417B60D7E90023C7E90823D7E90801A4
:104E10004FF47A724FF000030CF070F802460B4624
:104E2000C7E90623D7E9060102460B464FF0000802
:104E30004FF000094FEA431949EAD2694FEA421894
:104E400042464B46121A63EB01034FF000084FF045
:104E500000094FEA830949EA92794FEA82084246FB
:104E60004B46121841EB03034FF000004FF00001D6
:104E7000D90041EA5271D00002460B46104619464D
:104E8000D7E90823141A63EB010522462B464FF09D
:104E900000004FF00001590141EAD2615001024681
:104EA0000B46121B63EB05034FF000004FF00001AF
:104EB000590241EAD251500202460B46121945EB03
:104EC00003034FF000004FF00001990141EA9261A5
:104ED0009001801A61EB030110EB040A41EB050B12
:104EE000C7E904ABBA69FB681A603A69FB685A60A3
:104EF000002318462837BD46BDE8B08FEC030024D8
:104F000080B584B000AF78600023FB6006220B21DF
:104F100040F2DB7002F064F9F860FB68064A02FBBD
:104F200003F27B681A607B6800225A6000231846EF
:104F30001037BD4680BD00BF8051010080B500AF75
:104F400002F0F1FF00BF80BD80B400AF044B1B68CE
:104F50000133034A136000BFBD465DF8047B704710
:104F6000EC03002480B582B000AF78600B46FB7084
:104F7000FB78002B04D07868FEF76EFF034603E051
:104F80007868FEF7BFFF034618460837BD4680BD68
:104F900080B588B000AF78600B46FB700023FB61E2
:104FA00039E07A68FB690A339B0013445B68BB6194
:104FB000BB69002B2CD0BB695A79BB691979FB7886
:104FC0000B40DBB21343DAB2BB695A71BB695B7940
:104FD000002B1DD0EFF3108372B6BB82BB8AFB821D
:104FE000BB69DB6807F10C021146184601F0D4F8E2
:104FF000FB68002B04DCBB69DB681846FFF798F8F8
:10500000FB8A7B827B8A13F0010F00D162B600BF5E
:10501000FB690133FB61FB69032BC2DD00BF00BFED
:105020002037BD4680BD80B588B000AFF860B9605C
:105030001346FB71FB68DB891BB20133FB61FB6824
:10504000B3F912301A46FB69934201DB0023FB617E
:10505000FB681B8A1BB21A46FB6993420FD0FB68A0
:105060005B69FA68D28912B21344BA68D2B21A7074
:10507000FB691AB2FB68DA810023BB613AE0FB7975
:10508000002B34D0EFF3108372B6BB82BB8AFB8255
:10509000FB681B8A1BB21A46FB69934202D00023AD
:1050A000BB6115E0FB6801225A70FB685B6A5B6AB2
:1050B0000121F8689847FB68063301211846FFF77D
:1050C00051FFB861FB685B6A5B6A0021F86898472A
:1050D000FB8A7B827B8A13F0010F00D162B600BF8E
:1050E000BB69002BB4DA6FF00303BB6102E06FF021
:1050F0000A03BB61BB6918462037BD4680BD80B539
:1051000082B000AF7860396000BF7B685B6A9B6AE1
:10511000786898470346002BF7D07B685B6A1B6A68
:1051200039687868984700BF0837BD4680BD80B5AC
:1051300086B000AFF860B9607A607B687B6116E08A
:10514000BB685A1CBA601B783B61FB68DB78002B9C
:1051500006D03B690A2B03D10D21F868FFF7CFFF7A
:105160003969F868FFF7CBFF7B68013B7B607B68A0
:10517000002BE5D17B6918461837BD4680BD80B548
:1051800088B000AF786039607B680C330121184625
:10519000FFF7E8FEF861FB69002B55DBEFF31083A6
:1051A00072B6FB81FB897B830023FB6115E07B6882
:1051B00001225A707B685B6A5B6A012178689847B4
:1051C0007B68063301211846FFF7CCFEF8617B6847
:1051D0005B6A5B6A002178689847FB69002B07DBF4
:1051E0007B68DB891AB27B681B8A1BB29A42DED1CC
:1051F0007B8BBB81BB8913F0010F00D162B600BF6E
:10520000144B1B687B61FB69002B18DB0FE04FF42C
:105210007A700CF01FFE0F4B1A687B69D31A3B6142
:105220003A693B689A4202D36FF073030DE07B68E2
:105230005B6ADB6A786898470346002BE7D07B6897
:105240000C331846FEF774FFFB6918462037BD463D
:1052500080BD00BFEC03002480B588B000AF78604B
:105260007B689B68BB61BB691B697B617B6904339D
:1052700001211846FFF776FEF861FB69002B01DA81
:10528000FB6957E07B691B780133FB74FB7C002BC7
:1052900003D16FF01703FB6146E0FB7C012B40D18B
:1052A000EFF3108372B6FB81FB893B827B69DB786D
:1052B000002B11D17B695B6A1B6878699847F8619C
:1052C000FB69002B08DA3B8ABB81BB8913F0010F15
:1052D00000D162B600BF27E07B695B6A9B68786992
:1052E0009847F861FB69002B0DDA7B695B6A5B68A4
:1052F000786998473B8A7B817B8913F0010F00D145
:1053000062B600BF10E07B695B6A9B690121786926
:1053100098473B8A3B813B8913F0010F00D162B66D
:1053200000BF7B69FA7C1A707B6904331846FEF76C
:10533000FFFEFB6918462037BD4680BD80B586B0AC
:1053400000AF78607B689B687B617B691B693B6110
:105350003B69043300211846FFF704FE3B691B78C4
:10536000012B0CD93B691B78013BDAB23B691A70FF
:105370003B6904331846FEF7DBFE00233BE03B6944
:1053800000221A703B695B6A9B6900213869984763
:105390007B681B6803F04003002B04D14FF4C871F5
:1053A0003869FFF7ECFEEFF3108372B6BB81BB895F
:1053B000FB813B695B6ADB68386998473B69DB784E
:1053C000002B04D13B695B6A5B6838699847FB89AD
:1053D0007B817B8913F0010F00D162B600BF386971
:1053E00000F044FB386900F073FB3B690433184656
:1053F000FEF79EFE002318461837BD4680BD80B5D7
:105400008EB000AFF860B9607A60FB689B68FB62A1
:10541000FB6A1B69BB62BB6A18337B6200237B6338
:105420007B6A01211846FFF79DFD38623B6A002B1D
:1054300080F296803B6AA8E07B6A9B887B867B6AC9
:105440005B881BB2B7F932209A421FD07B6A9A68F8
:10545000B7F9323013441B787B777B8E01339BB2D4
:105460007B867B6AB3F90630B7F932209A4201DBBA
:1054700000237B867B6A7A8E9A80BB685A1CBA604E
:105480007A7F1A707B6B01337B6369E07B6B002B47
:105490006CDCFB689B68002B03D16FF050037B63CF
:1054A00067E0FB681B6803F04003002B03D06FF03C
:1054B0000A037B635DE0EFF3108372B67B837B8B23
:1054C000FB83BB6A5B6A9B690021B86A98477B6A69
:1054D0005B881AB27B6A9B881BB29A4232D1BB6A44
:1054E0005B6A9B690121B86A98477B6A5B881AB23C
:1054F0007B6A9B881BB29A4208D0FB8B3B833B8B19
:1055000013F0010F00D162B600BF29E0BB6A01228F
:105510009A70BB6A083301211846FFF723FD3862F1
:10552000FB8BFB82FB8A13F0010F00D162B600BF38
:105530003B6A002B14DA7B6B002B19D16FF003034D
:105540007B6315E0FB8BBB82BB8A13F0010F00D19C
:1055500062B600BFBB6A5B6A9B690121B86A984763
:105560007B6B7A689A423FF667AF02E000BF00E0CB
:1055700000BFBB6A5B6A9B690121B86A9847BB6A36
:1055800018331846FEF7D4FD7B6B18463837BD46F6
:1055900080BD80B58AB000AFF860B9607A60FB6802
:1055A0009B68FB61FB691B69BB617B687B6202F0E6
:1055B00089FF0346002B04D10CF08EFA0346002B22
:1055C00015D0EFF3108372B63B823B8ABB827A68B8
:1055D000B968B869FFF7ABFD3862BB8A7B827B8A0A
:1055E00013F0010F00D162B600BF3B6A64E0BB69F3
:1055F0000C3301211846FFF7B5FC38623B6A002BDB
:1056000001DA3B6A58E0FB681B6803F04003002B9B
:105610000CBF01230023DBB2FB75BB695B6A5B6ACD
:105620000021B869984730E0BB685A1CBA601B7803
:10563000BB7500233B62BB69DB78002B09D0BB7DC7
:105640000A2B06D1FB7D1A460D21B869FFF7EBFC4A
:1056500038623B6A002B06DBBB7DFA7D1946B869D0
:10566000FFF7E1FC38623B6A002B0BDA7B6A7A6851
:105670009A4204D27A6A7B68D31A7B6208E03B6A5A
:105680007B6205E07B68013B7B607B68002BCBD1B4
:10569000BB69DB891AB2BB691B8A1BB29A4205D06F
:1056A000BB695B6A5B6A0121B8699847BB690C33C7
:1056B0001846FEF73DFD7B6A18462837BD4680BD7B
:1056C00080B590B000AFF860B9607A60FB689B6805
:1056D000FB62FB6A1B69BB62BB6A5B6A1B697A6817
:1056E000B968F8689847F863FB6B13F1190F40F03D
:1056F000B380BB6840F20932934277D0BB6840F276
:105700000932934200F3A980BB6840F2073293420A
:1057100004D0BB68B3F5427F34D09EE0EFF3108332
:1057200072B63B843B8C7B84BB6A9B8B1AB2BB6A90
:105730005B8B1BB29A4209DCBB6A5B8B1BB21A46BD
:10574000BB6A9B8B1BB2D31ABB630DE0BB6AB3F978
:105750001E301A46BB6A9B8B1BB21946BB6A5B8B19
:105760001BB2CB1AD31ABB637B8CFB83FB8B13F06E
:10577000010F00D162B600BF7B68BA6B1A600023CC
:10578000FB636AE0EFF3108372B6BB83BB8BBB8411
:10579000BB6A1B8A1AB2BB6ADB891BB29A4209DC5C
:1057A000BB6ADB891BB21A46BB6A1B8A1BB2D31ABF
:1057B0007B630DE0BB6AB3F912301A46BB6A1B8AE1
:1057C0001BB21946BB6ADB891BB2CB1AD31A7B63A7
:1057D000BB8C7B837B8B13F0010F00D162B600BFC3
:1057E0007B687A6B1A600023FB6336E0EFF310836B
:1057F00072B63B833B8BFB84BB6ADB891AB2BB6A04
:105800001B8A1BB29A420ADABB6A1B8A1BB21A466F
:10581000BB6ADB891BB2D31A013B3B630EE0BB6A58
:10582000B3F912301A46BB6ADB891BB21946BB6A50
:105830001B8A1BB2CB1AD31A013B3B63FB8CFB8246
:10584000FB8A13F0010F00D162B600BF7B683A6B90
:105850001A600023FB6300E000BFFB6B1846403773
:10586000BD4680BD80B58CB000AFF860B96013460E
:10587000FB71FB689B68FB61FB691B69BB61BB69D2
:105880000A3301211846FFF76DFB78627B6A002B13
:1058900001DA7B6A9CE0FB79002B00F08480002316
:1058A0003B621AE0BA693B6A0A339B0013445B68A7
:1058B000002B0FD1BA693B6A0A339B001344BA68C4
:1058C0005A603B6A0A339B00BA6913441A1DBB68CD
:1058D0001A6105E03B6A01333B623B6A032BE1DD61
:1058E0003B6A032B06DDBB6800221A616FF00F03D1
:1058F0007B6267E0002387F82F30BB690C330021FF
:105900001846FFF72FFBBB69DB891BB20133BB6273
:10591000BB69B3F912301A46BB6A934201DB00231C
:10592000BB62BB691B8A1BB21A46BB6A93420BD08F
:10593000BB681B795BB203F004035AB297F92F30AE
:1059400013435BB287F82F30BB690C331846FEF760
:10595000EFFBBB69183300211846FFF703FBBB6957
:105960005B8B1AB2BB699B8B1BB29A420BD0BB6894
:105970001B795BB203F001035AB297F92F3013433E
:105980005BB287F82F30BB6918331846FEF7D0FB9F
:1059900097F82F30002B15D097F82F301946B8699B
:1059A000FFF7F6FA0EE0BB681B69002B09D0BB6855
:1059B0001B697B617B6900221A60BB6800221A6147
:1059C00000E000BFBB690A331846FEF7B1FB7B6AF3
:1059D00018463037BD4680BD80B582B000AF7860D4
:1059E00039603B680C3301220021184600F09CFB13
:1059F0003B68183301220021184600F095FB3B68F4
:105A0000043301220021184600F08EFB3B68063368
:105A100000220021184600F087FB3B680833002273
:105A20000021184600F080FB3B680A330122002168
:105A3000184600F079FB3B6806330021184600F059
:105A4000E1FB3B6808330021184600F0DBFB3B68B4
:105A50004FF4DB72044978680AF021FC03461846CB
:105A60000837BD4680BD00BF785F010880B582B0B1
:105A700000AF786001217868FFF78AFA7B689B782D
:105A8000DBB2002B07D07B6800229A707B6808335A
:105A90001846FEF74DFB00BF0837BD4680BD80B5F8
:105AA00082B000AF786004217868FFF771FA7B68F4
:105AB0005B78DBB2002B07D07B6800225A707B68D2
:105AC00006331846FEF734FB00BF0837BD4680BDDD
:105AD00080B582B000AF78607B680633002118463D
:105AE0000CF034F97B680833002118460CF02EF9CD
:105AF0007B680C33012118460CF028F97B681833B9
:105B0000012118460CF022F97B680A33012118465E
:105B10000CF01CF900BF0837BD4680BD80B584B0CD
:105B200000AF78600023FB8121E07B685B6A1B6A21
:105B30007A6852697968098A09B20A44127811466A
:105B400078689847FB890133FB817B681B8A1BB20D
:105B50009BB201339BB21BB27A68194611827A68F4
:105B6000B2F91220934202DB7B6800221A827B6822
:105B7000DB891AB27B681B8A1BB29A4207D07B680A
:105B80005B6A9B6A786898470346002BCDD17B6897
:105B9000DB891AB27B681B8A1BB29A4205D17B68EB
:105BA0005B6A5B6A002178689847FB89002B02D00A
:105BB0007868FFF774FF00BF1037BD4680BD80B521
:105BC00088B000AF78607B6818337B617B695B8845
:105BD0001BB20133FB6100237B837B69B3F9063081
:105BE0001A46FB69934235DB0023FB6132E07B6997
:105BF0009B881BB21A46FB6993420CBF012300230A
:105C0000DBB2FB747B685B6A5B6907F10C021146CF
:105C1000786898470346BB74FB7C002B1AD17B69DC
:105C20009B687A69528812B21344BA7C1A707B8BD3
:105C300001337B83FB691AB27B695A80FB690133AC
:105C4000FB617B69B3F906301A46FB69934201DBBD
:105C50000023FB617B685B6ADB69786898470346D1
:105C6000002BC4D17B8B002B02D07868FFF7FEFE9F
:105C700000BF2037BD4680BD80B483B000AF002395
:105C80007B607B6818460C37BD465DF8047B704727
:105C900080B582B000AF786039603968786802F00A
:105CA000D1FA0120FCF7F5FE80B582B000AF01F01B
:105CB00013FB78607B68103318460837BD4680BDFB
:105CC00080B584B000AF78607B685433FB60FB68BC
:105CD00001220021184600F042FAFB680022C3F8B6
:105CE0003C21FB680022C3F84021FB684FF0FF32E3
:105CF0009A60FB680433184600F050F8FB684FF0D8
:105D0000FF321A67FB686C33184600F047F8FB68EF
:105D10004FF0FF32C3F8D820FB68D433184600F0A8
